:03000000020800F3
:0C080000787FE4F6D8FD758110020847EF
:03091B00010800D0
:0E090C00E4FEEEC39F50077D0DDDFE0E80F46D
:01091A0022BA
:1008F60020B5127F1412090C20B50A758C06758A6C
:0609060006D2B3D28C22E0
:03000B0002088C5C
:10088C00C0E0C0D0050CE50C7002050BB44C37E58C
:10089C000BB40E32750B00750C000510E5107002D0
:1008AC00050F643C450F701EF50FF510050EE50E97
:1008BC007002050DB50A0FE50DB5090A750D007529
:0B08CC000E00C2B3C28CD0D0D0E032CE
:1008D700750900750A01758902D2A9D2AFE4F50F2F
:0F08E700F510F50DF50EC28CC2B31208F680FBAA
:10080C000208D7E493A3F8E493A34003F68001F223
:10081C0008DFF48029E493A3F85407240CC8C333ED
:10082C00C4540F4420C8834004F456800146F6DFBC
:10083C00E4800B010204081020408090091BE47E28
:10084C00019360BCA3FF543F30E509541FFEE493B1
:10085C00A360010ECF54C025E060A840B8E493A378
:10086C00FAE493A3F8E493A3C8C582C8CAC583CAA3
:10087C00F0A3C8C582C8CAC583CADFE9DEE780BE5B
:01091E0000D8
:00000001FF
